{
  "contractName": "AdvertiseNFT",
  "abi": [
    {
      "inputs": [
        {
          "internalType": "contract AdcToken",
          "name": "adcToken",
          "type": "address"
        },
        {
          "internalType": "uint256",
          "name": "_useOfAdc",
          "type": "uint256"
        },
        {
          "internalType": "uint256",
          "name": "_nftFee",
          "type": "uint256"
        }
      ],
      "stateMutability": "nonpayable",
      "type": "constructor"
    },
    {
      "anonymous": false,
      "inputs": [
        {
          "indexed": true,
          "internalType": "address",
          "name": "owner",
          "type": "address"
        },
        {
          "indexed": true,
          "internalType": "address",
          "name": "approved",
          "type": "address"
        },
        {
          "indexed": true,
          "internalType": "uint256",
          "name": "tokenId",
          "type": "uint256"
        }
      ],
      "name": "Approval",
      "type": "event"
    },
    {
      "anonymous": false,
      "inputs": [
        {
          "indexed": true,
          "internalType": "address",
          "name": "owner",
          "type": "address"
        },
        {
          "indexed": true,
          "internalType": "address",
          "name": "operator",
          "type": "address"
        },
        {
          "indexed": false,
          "internalType": "bool",
          "name": "approved",
          "type": "bool"
        }
      ],
      "name": "ApprovalForAll",
      "type": "event"
    },
    {
      "anonymous": false,
      "inputs": [
        {
          "indexed": false,
          "internalType": "string",
          "name": "tokenURI",
          "type": "string"
        },
        {
          "indexed": false,
          "internalType": "string",
          "name": "linkURL",
          "type": "string"
        }
      ],
      "name": "CreateAdvertiseNFT",
      "type": "event"
    },
    {
      "anonymous": false,
      "inputs": [
        {
          "indexed": true,
          "internalType": "address",
          "name": "previousOwner",
          "type": "address"
        },
        {
          "indexed": true,
          "internalType": "address",
          "name": "newOwner",
          "type": "address"
        }
      ],
      "name": "OwnershipTransferred",
      "type": "event"
    },
    {
      "anonymous": false,
      "inputs": [
        {
          "indexed": false,
          "internalType": "uint256",
          "name": "tokenId",
          "type": "uint256"
        }
      ],
      "name": "Transfer",
      "type": "event"
    },
    {
      "anonymous": false,
      "inputs": [
        {
          "indexed": true,
          "internalType": "address",
          "name": "from",
          "type": "address"
        },
        {
          "indexed": true,
          "internalType": "address",
          "name": "to",
          "type": "address"
        },
        {
          "indexed": true,
          "internalType": "uint256",
          "name": "tokenId",
          "type": "uint256"
        }
      ],
      "name": "Transfer",
      "type": "event"
    },
    {
      "inputs": [
        {
          "internalType": "address",
          "name": "to",
          "type": "address"
        },
        {
          "internalType": "uint256",
          "name": "tokenId",
          "type": "uint256"
        }
      ],
      "name": "approve",
      "outputs": [],
      "stateMutability": "nonpayable",
      "type": "function"
    },
    {
      "inputs": [
        {
          "internalType": "address",
          "name": "owner",
          "type": "address"
        }
      ],
      "name": "balanceOf",
      "outputs": [
        {
          "internalType": "uint256",
          "name": "",
          "type": "uint256"
        }
      ],
      "stateMutability": "view",
      "type": "function",
      "constant": true
    },
    {
      "inputs": [],
      "name": "baseURI",
      "outputs": [
        {
          "internalType": "string",
          "name": "",
          "type": "string"
        }
      ],
      "stateMutability": "view",
      "type": "function",
      "constant": true
    },
    {
      "inputs": [
        {
          "internalType": "uint256",
          "name": "tokenId",
          "type": "uint256"
        }
      ],
      "name": "getApproved",
      "outputs": [
        {
          "internalType": "address",
          "name": "",
          "type": "address"
        }
      ],
      "stateMutability": "view",
      "type": "function",
      "constant": true
    },
    {
      "inputs": [
        {
          "internalType": "address",
          "name": "owner",
          "type": "address"
        },
        {
          "internalType": "address",
          "name": "operator",
          "type": "address"
        }
      ],
      "name": "isApprovedForAll",
      "outputs": [
        {
          "internalType": "bool",
          "name": "",
          "type": "bool"
        }
      ],
      "stateMutability": "view",
      "type": "function",
      "constant": true
    },
    {
      "inputs": [],
      "name": "name",
      "outputs": [
        {
          "internalType": "string",
          "name": "",
          "type": "string"
        }
      ],
      "stateMutability": "view",
      "type": "function",
      "constant": true
    },
    {
      "inputs": [],
      "name": "owner",
      "outputs": [
        {
          "internalType": "address",
          "name": "",
          "type": "address"
        }
      ],
      "stateMutability": "view",
      "type": "function",
      "constant": true
    },
    {
      "inputs": [
        {
          "internalType": "uint256",
          "name": "tokenId",
          "type": "uint256"
        }
      ],
      "name": "ownerOf",
      "outputs": [
        {
          "internalType": "address",
          "name": "",
          "type": "address"
        }
      ],
      "stateMutability": "view",
      "type": "function",
      "constant": true
    },
    {
      "inputs": [],
      "name": "renounceOwnership",
      "outputs": [],
      "stateMutability": "nonpayable",
      "type": "function"
    },
    {
      "inputs": [
        {
          "internalType": "address",
          "name": "from",
          "type": "address"
        },
        {
          "internalType": "address",
          "name": "to",
          "type": "address"
        },
        {
          "internalType": "uint256",
          "name": "tokenId",
          "type": "uint256"
        }
      ],
      "name": "safeTransferFrom",
      "outputs": [],
      "stateMutability": "nonpayable",
      "type": "function"
    },
    {
      "inputs": [
        {
          "internalType": "address",
          "name": "from",
          "type": "address"
        },
        {
          "internalType": "address",
          "name": "to",
          "type": "address"
        },
        {
          "internalType": "uint256",
          "name": "tokenId",
          "type": "uint256"
        },
        {
          "internalType": "bytes",
          "name": "_data",
          "type": "bytes"
        }
      ],
      "name": "safeTransferFrom",
      "outputs": [],
      "stateMutability": "nonpayable",
      "type": "function"
    },
    {
      "inputs": [
        {
          "internalType": "address",
          "name": "operator",
          "type": "address"
        },
        {
          "internalType": "bool",
          "name": "approved",
          "type": "bool"
        }
      ],
      "name": "setApprovalForAll",
      "outputs": [],
      "stateMutability": "nonpayable",
      "type": "function"
    },
    {
      "inputs": [
        {
          "internalType": "bytes4",
          "name": "interfaceId",
          "type": "bytes4"
        }
      ],
      "name": "supportsInterface",
      "outputs": [
        {
          "internalType": "bool",
          "name": "",
          "type": "bool"
        }
      ],
      "stateMutability": "view",
      "type": "function",
      "constant": true
    },
    {
      "inputs": [],
      "name": "symbol",
      "outputs": [
        {
          "internalType": "string",
          "name": "",
          "type": "string"
        }
      ],
      "stateMutability": "view",
      "type": "function",
      "constant": true
    },
    {
      "inputs": [
        {
          "internalType": "uint256",
          "name": "index",
          "type": "uint256"
        }
      ],
      "name": "tokenByIndex",
      "outputs": [
        {
          "internalType": "uint256",
          "name": "",
          "type": "uint256"
        }
      ],
      "stateMutability": "view",
      "type": "function",
      "constant": true
    },
    {
      "inputs": [
        {
          "internalType": "address",
          "name": "owner",
          "type": "address"
        },
        {
          "internalType": "uint256",
          "name": "index",
          "type": "uint256"
        }
      ],
      "name": "tokenOfOwnerByIndex",
      "outputs": [
        {
          "internalType": "uint256",
          "name": "",
          "type": "uint256"
        }
      ],
      "stateMutability": "view",
      "type": "function",
      "constant": true
    },
    {
      "inputs": [
        {
          "internalType": "uint256",
          "name": "tokenId",
          "type": "uint256"
        }
      ],
      "name": "tokenURI",
      "outputs": [
        {
          "internalType": "string",
          "name": "",
          "type": "string"
        }
      ],
      "stateMutability": "view",
      "type": "function",
      "constant": true
    },
    {
      "inputs": [],
      "name": "totalSupply",
      "outputs": [
        {
          "internalType": "uint256",
          "name": "",
          "type": "uint256"
        }
      ],
      "stateMutability": "view",
      "type": "function",
      "constant": true
    },
    {
      "inputs": [
        {
          "internalType": "address",
          "name": "from",
          "type": "address"
        },
        {
          "internalType": "address",
          "name": "to",
          "type": "address"
        },
        {
          "internalType": "uint256",
          "name": "tokenId",
          "type": "uint256"
        }
      ],
      "name": "transferFrom",
      "outputs": [],
      "stateMutability": "nonpayable",
      "type": "function"
    },
    {
      "inputs": [
        {
          "internalType": "address",
          "name": "newOwner",
          "type": "address"
        }
      ],
      "name": "transferOwnership",
      "outputs": [],
      "stateMutability": "nonpayable",
      "type": "function"
    },
    {
      "inputs": [
        {
          "internalType": "string",
          "name": "tokenURI",
          "type": "string"
        },
        {
          "internalType": "string",
          "name": "linkURL",
          "type": "string"
        }
      ],
      "name": "crateAdvertiseNFT",
      "outputs": [],
      "stateMutability": "nonpayable",
      "type": "function"
    },
    {
      "inputs": [
        {
          "internalType": "uint256",
          "name": "_useOfAdc",
          "type": "uint256"
        },
        {
          "internalType": "uint256",
          "name": "_nftFee",
          "type": "uint256"
        }
      ],
      "name": "setAdcFee",
      "outputs": [],
      "stateMutability": "nonpayable",
      "type": "function"
    },
    {
      "inputs": [
        {
          "internalType": "string",
          "name": "baseURI",
          "type": "string"
        }
      ],
      "name": "setBaseURI",
      "outputs": [],
      "stateMutability": "nonpayable",
      "type": "function"
    },
    {
      "inputs": [
        {
          "internalType": "uint256",
          "name": "tokenId",
          "type": "uint256"
        }
      ],
      "name": "transfer",
      "outputs": [],
      "stateMutability": "nonpayable",
      "type": "function"
    },
    {
      "inputs": [
        {
          "internalType": "uint256",
          "name": "tokenId",
          "type": "uint256"
        }
      ],
      "name": "getLinkURL",
      "outputs": [
        {
          "internalType": "string",
          "name": "",
          "type": "string"
        }
      ],
      "stateMutability": "nonpayable",
      "type": "function"
    },
    {
      "inputs": [
        {
          "internalType": "uint256",
          "name": "tokenId",
          "type": "uint256"
        },
        {
          "internalType": "string",
          "name": "linkUrl",
          "type": "string"
        }
      ],
      "name": "setLinkURL",
      "outputs": [],
      "stateMutability": "nonpayable",
      "type": "function"
    },
    {
      "inputs": [
        {
          "internalType": "uint256",
          "name": "tokenId",
          "type": "uint256"
        },
        {
          "internalType": "uint256",
          "name": "price",
          "type": "uint256"
        }
      ],
      "name": "setNftPrice",
      "outputs": [],
      "stateMutability": "nonpayable",
      "type": "function"
    },
    {
      "inputs": [],
      "name": "getTokensByOwner",
      "outputs": [
        {
          "internalType": "uint256[]",
          "name": "",
          "type": "uint256[]"
        }
      ],
      "stateMutability": "nonpayable",
      "type": "function"
    }
  ],
  "bytecode": "0x60806040526000600b556064600f553480156200001b57600080fd5b5060405162002d5638038062002d56833981810160405260608110156200004157600080fd5b50805160208083015160409384015184518086018652600d81526c10591d995c9d1a5cd948139195609a1b818501528551808701909652600686526510591cd3919560d21b93860193909352929390929190620000a56301ffc9a760e01b62000191565b8151620000ba9060069060208501906200021a565b508051620000d09060079060208401906200021a565b50620000e36380ac58cd60e01b62000191565b620000f5635b5e139f60e01b62000191565b6200010763780e9d6360e01b62000191565b50600090506200011662000216565b600a80546001600160a01b0319166001600160a01b038316908117909155604051919250906000907f8be0079c531659141344cd1fd0a4f28419497f9722a3daafe3b4186f6b6457e0908290a350600c80546001600160a01b0319166001600160a01b039490941693909317909255600d55600e55620002b6565b6001600160e01b03198082161415620001f1576040805162461bcd60e51b815260206004820152601c60248201527f4552433136353a20696e76616c696420696e7465726661636520696400000000604482015290519081900360640190fd5b6001600160e01b0319166000908152602081905260409020805460ff19166001179055565b3390565b828054600181600116156101000203166002900490600052602060002090601f016020900481019282601f106200025d57805160ff19168380011785556200028d565b828001600101855582156200028d579182015b828111156200028d57825182559160200191906001019062000270565b506200029b9291506200029f565b5090565b5b808211156200029b5760008155600101620002a0565b612a9080620002c66000396000f3fe608060405234801561001057600080fd5b50600436106101c45760003560e01c80636c0360eb116100f9578063a22cb46511610097578063c87b56dd11610071578063c87b56dd14610839578063c9d30d5314610856578063e985e9c514610879578063f2fde38b146108a7576101c4565b8063a22cb4651461069c578063a5e5e5f0146106ca578063b88d4fde14610775576101c4565b80637a61013f116100d35780637a61013f1461064c5780637bd104771461066f5780638da5cb5b1461068c57806395d89b4114610694576101c4565b80636c0360eb1461061657806370a082311461061e578063715018a614610644576101c4565b80632f745c59116101665780634f6ccce7116101405780634f6ccce71461040f57806355f804b31461042c5780635a96ada6146104d05780636352211e146105f9576101c4565b80632f745c591461035557806342842e0e146103815780634610a32a146103b7576101c4565b8063095ea7b3116101a2578063095ea7b3146102ba57806312514bba146102e857806318160ddd1461030557806323b872dd1461031f576101c4565b806301ffc9a7146101c957806306fdde0314610204578063081812fc14610281575b600080fd5b6101f0600480360360208110156101df57600080fd5b50356001600160e01b0319166108cd565b604080519115158252519081900360200190f35b61020c6108f0565b6040805160208082528351818301528351919283929083019185019080838360005b8381101561024657818101518382015260200161022e565b50505050905090810190601f1680156102735780820380516001836020036101000a031916815260200191505b509250505060405180910390f35b61029e6004803603602081101561029757600080fd5b5035610986565b604080516001600160a01b039092168252519081900360200190f35b6102e6600480360360408110156102d057600080fd5b506001600160a01b0381351690602001356109e8565b005b6102e6600480360360208110156102fe57600080fd5b5035610ac3565b61030d610c8e565b60408051918252519081900360200190f35b6102e66004803603606081101561033557600080fd5b506001600160a01b03813581169160208101359091169060400135610c9f565b61030d6004803603604081101561036b57600080fd5b506001600160a01b038135169060200135610cf6565b6102e66004803603606081101561039757600080fd5b506001600160a01b03813581169160208101359091169060400135610d21565b6103bf610d3c565b60408051602080825283518183015283519192839290830191858101910280838360005b838110156103fb5781810151838201526020016103e3565b505050509050019250505060405180910390f35b61030d6004803603602081101561042557600080fd5b5035610dcc565b6102e66004803603602081101561044257600080fd5b810190602081018135600160201b81111561045c57600080fd5b82018360208201111561046e57600080fd5b803590602001918460018302840111600160201b8311171561048f57600080fd5b91908080601f016020809104026020016040519081016040528093929190818152602001838380828437600092019190915250929550610de2945050505050565b6102e6600480360360408110156104e657600080fd5b810190602081018135600160201b81111561050057600080fd5b82018360208201111561051257600080fd5b803590602001918460018302840111600160201b8311171561053357600080fd5b91908080601f0160208091040260200160405190810160405280939291908181526020018383808284376000920191909152509295949360208101935035915050600160201b81111561058557600080fd5b82018360208201111561059757600080fd5b803590602001918460018302840111600160201b831117156105b857600080fd5b91908080601f016020809104026020016040519081016040528093929190818152602001838380828437600092019190915250929550610e46945050505050565b61029e6004803603602081101561060f57600080fd5b5035610fae565b61020c610fd6565b61030d6004803603602081101561063457600080fd5b50356001600160a01b0316611037565b6102e661109f565b6102e66004803603604081101561066257600080fd5b5080359060200135611141565b61020c6004803603602081101561068557600080fd5b50356111b8565b61029e611259565b61020c611268565b6102e6600480360360408110156106b257600080fd5b506001600160a01b03813516906020013515156112c9565b6102e6600480360360408110156106e057600080fd5b81359190810190604081016020820135600160201b81111561070157600080fd5b82018360208201111561071357600080fd5b803590602001918460018302840111600160201b8311171561073457600080fd5b91908080601f0160208091040260200160405190810160405280939291908181526020018383808284376000920191909152509295506113ce945050505050565b6102e66004803603608081101561078b57600080fd5b6001600160a01b03823581169260208101359091169160408201359190810190608081016060820135600160201b8111156107c557600080fd5b8201836020820111156107d757600080fd5b803590602001918460018302840111600160201b831117156107f857600080fd5b91908080601f016020809104026020016040519081016040528093929190818152602001838380828437600092019190915250929550611452945050505050565b61020c6004803603602081101561084f57600080fd5b50356114b0565b6102e66004803603604081101561086c57600080fd5b5080359060200135611757565b6101f06004803603604081101561088f57600080fd5b506001600160a01b03813581169160200135166117ba565b6102e6600480360360208110156108bd57600080fd5b50356001600160a01b03166117e8565b6001600160e01b0319811660009081526020819052604090205460ff165b919050565b60068054604080516020601f600260001961010060018816150201909516949094049384018190048102820181019092528281526060939092909183018282801561097c5780601f106109515761010080835404028352916020019161097c565b820191906000526020600020905b81548152906001019060200180831161095f57829003601f168201915b5050505050905090565b6000610991826118e1565b6109cc5760405162461bcd60e51b815260040180806020018281038252602c815260200180612939602c913960400191505060405180910390fd5b506000908152600460205260409020546001600160a01b031690565b60006109f382610fae565b9050806001600160a01b0316836001600160a01b03161415610a465760405162461bcd60e51b8152600401808060200182810382526021815260200180612a096021913960400191505060405180910390fd5b806001600160a01b0316610a586118ee565b6001600160a01b03161480610a795750610a7981610a746118ee565b6117ba565b610ab45760405162461bcd60e51b815260040180806020018281038252603881526020018061288c6038913960400191505060405180910390fd5b610abe83836118f2565b505050565b60008181526013602090815260409182902054600c5483516370a0823160e01b8152336004820152935191936001600160a01b03909116926370a0823192602480840193829003018186803b158015610b1b57600080fd5b505afa158015610b2f573d6000803e3d6000fd5b505050506040513d6020811015610b4557600080fd5b50511015610b9a576040805162461bcd60e51b815260206004820152601860248201527f414443e4bd99e9a29de4b88de8b6b3e4bba5e8b4ade4b9b00000000000000000604482015290519081900360640190fd5b600c546001600160a01b031663a9059cbb610bb483610fae565b60136000858152602001908152602001600020546040518363ffffffff1660e01b815260040180836001600160a01b0316815260200182815260200192505050602060405180830381600087803b158015610c0e57600080fd5b505af1158015610c22573d6000803e3d6000fd5b505050506040513d6020811015610c3857600080fd5b50610c45905033826109e8565b610c58610c5182610fae565b3383610d21565b6040805182815290517f248dd4076d0a389d795107efafd558ce7f31ae37b441ccb9a599c60868f480d59181900360200190a150565b6000610c9a6002611960565b905090565b610cb0610caa6118ee565b8261196b565b610ceb5760405162461bcd60e51b8152600401808060200182810382526031815260200180612a2a6031913960400191505060405180910390fd5b610abe838383611a0f565b6001600160a01b0382166000908152600160205260408120610d189083611b5b565b90505b92915050565b610abe83838360405180602001604052806000815250611452565b60606000610d4933611037565b905060608167ffffffffffffffff81118015610d6457600080fd5b50604051908082528060200260200182016040528015610d8e578160200160208202803683370190505b50905060005b82811015610dc557610da63382610cf6565b828281518110610db257fe5b6020908102919091010152600101610d94565b5091505090565b600080610dda600284611b67565b509392505050565b610dea6118ee565b600a546001600160a01b03908116911614610e3a576040805162461bcd60e51b81526020600482018190526024820152600080516020612991833981519152604482015290519081900360640190fd5b610e4381611b83565b50565b600e54600d54600c54604080516370a0823160e01b8152336004820152905192909301926001600160a01b03909116916370a0823191602480820192602092909190829003018186803b158015610e9c57600080fd5b505afa158015610eb0573d6000803e3d6000fd5b505050506040513d6020811015610ec657600080fd5b50511015610f0d576040805162461bcd60e51b815260206004820152600f60248201526e414443e4bd99e9a29de4b88de8b6b360881b604482015290519081900360640190fd5b600c546001600160a01b031663a9059cbb610f26611259565b600e54600d54016040518363ffffffff1660e01b815260040180836001600160a01b0316815260200182815260200192505050602060405180830381600087803b158015610f7357600080fd5b505af1158015610f87573d6000803e3d6000fd5b505050506040513d6020811015610f9d57600080fd5b50610faa90508282611b96565b5050565b6000610d1b826040518060600160405280602981526020016128ee6029913960029190611d03565b60098054604080516020601f600260001961010060018816150201909516949094049384018190048102820181019092528281526060939092909183018282801561097c5780601f106109515761010080835404028352916020019161097c565b60006001600160a01b03821661107e5760405162461bcd60e51b815260040180806020018281038252602a8152602001806128c4602a913960400191505060405180910390fd5b6001600160a01b0382166000908152600160205260409020610d1b90611960565b6110a76118ee565b600a546001600160a01b039081169116146110f7576040805162461bcd60e51b81526020600482018190526024820152600080516020612991833981519152604482015290519081900360640190fd5b600a546040516000916001600160a01b0316907f8be0079c531659141344cd1fd0a4f28419497f9722a3daafe3b4186f6b6457e0908390a3600a80546001600160a01b0319169055565b3361114b83610fae565b6001600160a01b0316146111a6576040805162461bcd60e51b815260206004820152601e60248201527fe4bb85e999904e4654e68ba5e69c89e88085e58fafe4bba5e4bfaee694b90000604482015290519081900360640190fd5b60009182526013602052604090912055565b60008181526012602090815260409182902080548351601f600260001961010060018616150201909316929092049182018490048402810184019094528084526060939283018282801561124d5780601f106112225761010080835404028352916020019161124d565b820191906000526020600020905b81548152906001019060200180831161123057829003601f168201915b50505050509050919050565b600a546001600160a01b031690565b60078054604080516020601f600260001961010060018816150201909516949094049384018190048102820181019092528281526060939092909183018282801561097c5780601f106109515761010080835404028352916020019161097c565b6112d16118ee565b6001600160a01b0316826001600160a01b03161415611337576040805162461bcd60e51b815260206004820152601960248201527f4552433732313a20617070726f766520746f2063616c6c657200000000000000604482015290519081900360640190fd5b80600560006113446118ee565b6001600160a01b03908116825260208083019390935260409182016000908120918716808252919093529120805460ff1916921515929092179091556113886118ee565b6001600160a01b03167f17307eab39ab6107e8899845ad3d59bd9653f200f220920489ca2b5937696c318360405180821515815260200191505060405180910390a35050565b336113d883610fae565b6001600160a01b031614611433576040805162461bcd60e51b815260206004820152601e60248201527fe4bb85e999904e4654e68ba5e69c89e88085e58fafe4bba5e4bfaee694b90000604482015290519081900360640190fd5b60008281526012602090815260409091208251610abe9284019061272e565b61146361145d6118ee565b8361196b565b61149e5760405162461bcd60e51b8152600401808060200182810382526031815260200180612a2a6031913960400191505060405180910390fd5b6114aa84848484611d1a565b50505050565b60606114bb826118e1565b6114f65760405162461bcd60e51b815260040180806020018281038252602f8152602001806129da602f913960400191505060405180910390fd5b60008281526008602090815260409182902080548351601f600260001961010060018616150201909316929092049182018490048402810184019094528084526060939283018282801561158b5780601f106115605761010080835404028352916020019161158b565b820191906000526020600020905b81548152906001019060200180831161156e57829003601f168201915b5050600954939450505050600260001961010060018416150201909116046115b45790506108eb565b80511561168557600981604051602001808380546001816001161561010002031660029004801561161c5780601f106115fa57610100808354040283529182019161161c565b820191906000526020600020905b815481529060010190602001808311611608575b5050825160208401908083835b602083106116485780518252601f199092019160209182019101611629565b6001836020036101000a038019825116818451168082178552505050505050905001925050506040516020818303038152906040529150506108eb565b600961169084611d6c565b60405160200180838054600181600116156101000203166002900480156116ee5780601f106116cc5761010080835404028352918201916116ee565b820191906000526020600020905b8154815290600101906020018083116116da575b5050825160208401908083835b6020831061171a5780518252601f1990920191602091820191016116fb565b6001836020036101000a03801982511681845116808217855250505050505090500192505050604051602081830303815290604052915050919050565b61175f6118ee565b600a546001600160a01b039081169116146117af576040805162461bcd60e51b81526020600482018190526024820152600080516020612991833981519152604482015290519081900360640190fd5b600d91909155600e55565b6001600160a01b03918216600090815260056020908152604080832093909416825291909152205460ff1690565b6117f06118ee565b600a546001600160a01b03908116911614611840576040805162461bcd60e51b81526020600482018190526024820152600080516020612991833981519152604482015290519081900360640190fd5b6001600160a01b0381166118855760405162461bcd60e51b81526004018080602001828103825260268152602001806128166026913960400191505060405180910390fd5b600a546040516001600160a01b038084169216907f8be0079c531659141344cd1fd0a4f28419497f9722a3daafe3b4186f6b6457e090600090a3600a80546001600160a01b0319166001600160a01b0392909216919091179055565b6000610d1b600283611e47565b3390565b600081815260046020526040902080546001600160a01b0319166001600160a01b038416908117909155819061192782610fae565b6001600160a01b03167f8c5be1e5ebec7d5bd14f71427d1e84f3dd0314c0f7b2291e5b200ac8c7c3b92560405160405180910390a45050565b6000610d1b82611e53565b6000611976826118e1565b6119b15760405162461bcd60e51b815260040180806020018281038252602c815260200180612860602c913960400191505060405180910390fd5b60006119bc83610fae565b9050806001600160a01b0316846001600160a01b031614806119f75750836001600160a01b03166119ec84610986565b6001600160a01b0316145b80611a075750611a0781856117ba565b949350505050565b826001600160a01b0316611a2282610fae565b6001600160a01b031614611a675760405162461bcd60e51b81526004018080602001828103825260298152602001806129b16029913960400191505060405180910390fd5b6001600160a01b038216611aac5760405162461bcd60e51b815260040180806020018281038252602481526020018061283c6024913960400191505060405180910390fd5b611ab7838383610abe565b611ac26000826118f2565b6001600160a01b0383166000908152600160205260409020611ae49082611e57565b506001600160a01b0382166000908152600160205260409020611b079082611e63565b50611b1460028284611e6f565b5080826001600160a01b0316846001600160a01b03167fddf252ad1be2c89b69c2b068fc378daa952ba7f163c4a11628f55a4df523b3ef60405160405180910390a4505050565b6000610d188383611e85565b6000808080611b768686611ee9565b9097909650945050505050565b8051610faa90600990602084019061272e565b600b54611ba4906001611f64565b600b819055611bb4903390611fbe565b611bc0600b5483611fd8565b600b5460009081526012602090815260409091208251611be29284019061272e565b50600f5460136000600b548152602001908152602001600020819055507f165ab55072b26da63be3a412c29da7c061c77a0f97c45f60b65dacc3ae0e26f08282604051808060200180602001838103835285818151815260200191508051906020019080838360005b83811015611c63578181015183820152602001611c4b565b50505050905090810190601f168015611c905780820380516001836020036101000a031916815260200191505b50838103825284518152845160209182019186019080838360005b83811015611cc3578181015183820152602001611cab565b50505050905090810190601f168015611cf05780820380516001836020036101000a031916815260200191505b5094505050505060405180910390a15050565b6000611d1084848461203b565b90505b9392505050565b611d25848484611a0f565b611d3184848484612105565b6114aa5760405162461bcd60e51b81526004018080602001828103825260328152602001806127e46032913960400191505060405180910390fd5b606081611d9157506040805180820190915260018152600360fc1b60208201526108eb565b8160005b8115611da957600101600a82049150611d95565b60608167ffffffffffffffff81118015611dc257600080fd5b506040519080825280601f01601f191660200182016040528015611ded576020820181803683370190505b50859350905060001982015b8315611e3e57600a840660300160f81b82828060019003935081518110611e1c57fe5b60200101906001600160f81b031916908160001a905350600a84049350611df9565b50949350505050565b6000610d18838361226d565b5490565b6000610d188383612285565b6000610d18838361234b565b6000611d1084846001600160a01b038516612395565b81546000908210611ec75760405162461bcd60e51b81526004018080602001828103825260228152602001806127c26022913960400191505060405180910390fd5b826000018281548110611ed657fe5b9060005260206000200154905092915050565b815460009081908310611f2d5760405162461bcd60e51b81526004018080602001828103825260228152602001806129176022913960400191505060405180910390fd5b6000846000018481548110611f3e57fe5b906000526020600020906002020190508060000154816001015492509250509250929050565b600082820183811015610d18576040805162461bcd60e51b815260206004820152601b60248201527f536166654d6174683a206164646974696f6e206f766572666c6f770000000000604482015290519081900360640190fd5b610faa82826040518060200160405280600081525061242c565b611fe1826118e1565b61201c5760405162461bcd60e51b815260040180806020018281038252602c815260200180612965602c913960400191505060405180910390fd5b60008281526008602090815260409091208251610abe9284019061272e565b600082815260018401602052604081205482816120d65760405162461bcd60e51b81526004018080602001828103825283818151815260200191508051906020019080838360005b8381101561209b578181015183820152602001612083565b50505050905090810190601f1680156120c85780820380516001836020036101000a031916815260200191505b509250505060405180910390fd5b508460000160018203815481106120e957fe5b9060005260206000209060020201600101549150509392505050565b6000612119846001600160a01b031661247e565b61212557506001611a07565b6060612233630a85bd0160e11b61213a6118ee565b88878760405160240180856001600160a01b03168152602001846001600160a01b0316815260200183815260200180602001828103825283818151815260200191508051906020019080838360005b838110156121a1578181015183820152602001612189565b50505050905090810190601f1680156121ce5780820380516001836020036101000a031916815260200191505b5095505050505050604051602081830303815290604052906001600160e01b0319166020820180516001600160e01b0383818316178352505050506040518060600160405280603281526020016127e4603291396001600160a01b0388169190612484565b9050600081806020019051602081101561224c57600080fd5b50516001600160e01b031916630a85bd0160e11b1492505050949350505050565b60009081526001919091016020526040902054151590565b6000818152600183016020526040812054801561234157835460001980830191908101906000908790839081106122b857fe5b90600052602060002001549050808760000184815481106122d557fe5b60009182526020808320909101929092558281526001898101909252604090209084019055865487908061230557fe5b60019003818190600052602060002001600090559055866001016000878152602001908152602001600020600090556001945050505050610d1b565b6000915050610d1b565b6000612357838361226d565b61238d57508154600181810184556000848152602080822090930184905584548482528286019093526040902091909155610d1b565b506000610d1b565b6000828152600184016020526040812054806123fa575050604080518082018252838152602080820184815286546001818101895560008981528481209551600290930290950191825591519082015586548684528188019092529290912055611d13565b8285600001600183038154811061240d57fe5b9060005260206000209060020201600101819055506000915050611d13565b6124368383612493565b6124436000848484612105565b610abe5760405162461bcd60e51b81526004018080602001828103825260328152602001806127e46032913960400191505060405180910390fd5b3b151590565b6060611d1084846000856125c1565b6001600160a01b0382166124ee576040805162461bcd60e51b815260206004820181905260248201527f4552433732313a206d696e7420746f20746865207a65726f2061646472657373604482015290519081900360640190fd5b6124f7816118e1565b15612549576040805162461bcd60e51b815260206004820152601c60248201527f4552433732313a20746f6b656e20616c7265616479206d696e74656400000000604482015290519081900360640190fd5b61255560008383610abe565b6001600160a01b03821660009081526001602052604090206125779082611e63565b5061258460028284611e6f565b5060405181906001600160a01b038416906000907fddf252ad1be2c89b69c2b068fc378daa952ba7f163c4a11628f55a4df523b3ef908290a45050565b60606125cc8561247e565b61261d576040805162461bcd60e51b815260206004820152601d60248201527f416464726573733a2063616c6c20746f206e6f6e2d636f6e7472616374000000604482015290519081900360640190fd5b60006060866001600160a01b031685876040518082805190602001908083835b6020831061265c5780518252601f19909201916020918201910161263d565b6001836020036101000a03801982511681845116808217855250505050505090500191505060006040518083038185875af1925050503d80600081146126be576040519150601f19603f3d011682016040523d82523d6000602084013e6126c3565b606091505b509150915081156126d7579150611a079050565b8051156126e75780518082602001fd5b60405162461bcd60e51b815260206004820181815286516024840152865187939192839260440191908501908083836000831561209b578181015183820152602001612083565b828054600181600116156101000203166002900490600052602060002090601f016020900481019282601f1061276f57805160ff191683800117855561279c565b8280016001018555821561279c579182015b8281111561279c578251825591602001919060010190612781565b506127a89291506127ac565b5090565b5b808211156127a857600081556001016127ad56fe456e756d657261626c655365743a20696e646578206f7574206f6620626f756e64734552433732313a207472616e7366657220746f206e6f6e20455243373231526563656976657220696d706c656d656e7465724f776e61626c653a206e6577206f776e657220697320746865207a65726f20616464726573734552433732313a207472616e7366657220746f20746865207a65726f20616464726573734552433732313a206f70657261746f7220717565727920666f72206e6f6e6578697374656e7420746f6b656e4552433732313a20617070726f76652063616c6c6572206973206e6f74206f776e6572206e6f7220617070726f76656420666f7220616c6c4552433732313a2062616c616e636520717565727920666f7220746865207a65726f20616464726573734552433732313a206f776e657220717565727920666f72206e6f6e6578697374656e7420746f6b656e456e756d657261626c654d61703a20696e646578206f7574206f6620626f756e64734552433732313a20617070726f76656420717565727920666f72206e6f6e6578697374656e7420746f6b656e4552433732314d657461646174613a2055524920736574206f66206e6f6e6578697374656e7420746f6b656e4f776e61626c653a2063616c6c6572206973206e6f7420746865206f776e65724552433732313a207472616e73666572206f6620746f6b656e2074686174206973206e6f74206f776e4552433732314d657461646174613a2055524920717565727920666f72206e6f6e6578697374656e7420746f6b656e4552433732313a20617070726f76616c20746f2063757272656e74206f776e65724552433732313a207472616e736665722063616c6c6572206973206e6f74206f776e6572206e6f7220617070726f766564a2646970667358221220bc12594f07d6f8fabf67d1ed17cb19ce6965f17920ea4043e410f6c848b428fb64736f6c634300060c0033",
  "immutableReferences": {},
  "source": "pragma solidity 0.6.12;\r\n\r\nimport \"@openzeppelin/contracts/token/ERC20/IERC20.sol\";\r\nimport \"@openzeppelin/contracts/token/ERC20/SafeERC20.sol\";\r\nimport \"@openzeppelin/contracts/utils/EnumerableSet.sol\";\r\nimport \"@openzeppelin/contracts/math/SafeMath.sol\";\r\nimport \"@openzeppelin/contracts/access/Ownable.sol\";\r\nimport \"@openzeppelin/contracts/token/ERC721/ERC721.sol\";\r\nimport \"./AdcToken.sol\";\r\n\r\ncontract AdvertiseNFT is ERC721(\"Advertise NFT\",\"AdsNFT\"),Ownable{\r\n\r\n  using SafeMath for uint256;\r\n  uint256 private sequence = 0; //token_id\r\n  AdcToken private _adcToken; //AdcAdc\r\n  uint256 private useOfAdc; //NFTAdc\r\n  uint256 private nftFee;   //NFT\r\n  uint256 private nftDefaultPrice = 100; //NFT100 Adc\r\n  // Token name\r\n  string private _name;\r\n  // Token symbol\r\n  string private _symbol;\r\n\r\n\r\n  mapping(uint => string) linkURLInfo;\r\n  mapping(uint => uint) nftPrice;\r\n\r\n  event CreateAdvertiseNFT(string tokenURI,string linkURL);\r\n  event Transfer(uint256 tokenId);\r\n\r\n   constructor(\r\n        AdcToken adcToken,\r\n        uint _useOfAdc,\r\n        uint _nftFee\r\n    ) public {\r\n        _adcToken = adcToken;\r\n        useOfAdc = _useOfAdc;\r\n        nftFee = _nftFee;\r\n    }\r\n\r\n  //NFT\r\n  function _createAdvertiseNFT(string memory tokenURI,string memory linkURL) internal {\r\n    sequence = sequence.add(1);      //token_id\r\n    _safeMint(msg.sender,sequence);  //NFT\r\n    _setTokenURI(sequence,tokenURI); //tokenURI\r\n    linkURLInfo[sequence] = linkURL; //URL\r\n    nftPrice[sequence] = nftDefaultPrice;\r\n    emit CreateAdvertiseNFT(tokenURI,linkURL);  \r\n  }\r\n\r\n  //NFTAdc\r\n  function crateAdvertiseNFT(string memory tokenURI,string memory linkURL) public {\r\n    require(_adcToken.balanceOf(msg.sender)>=(useOfAdc+nftFee),\"ADC\");\r\n    _adcToken.transfer(owner(),useOfAdc+nftFee); //ADC\r\n    _createAdvertiseNFT(tokenURI,linkURL);\r\n  }\r\n  \r\n  //adcowner\r\n  function setAdcFee(uint256 _useOfAdc,uint256 _nftFee) public onlyOwner {\r\n    useOfAdc = _useOfAdc;\r\n    nftFee = _nftFee;\r\n  }\r\n\r\n  //baseURI,owner\r\n  function setBaseURI(string memory baseURI) public onlyOwner {\r\n    _setBaseURI(baseURI);\r\n  }\r\n  \r\n  //\r\n  function transfer(uint256 tokenId) public{\r\n    require(_adcToken.balanceOf(msg.sender)>=nftPrice[tokenId],\"ADC\");\r\n    _adcToken.transfer(ownerOf(tokenId),nftPrice[tokenId]); //ADC\r\n    approve(msg.sender,tokenId);\r\n    safeTransferFrom(ownerOf(tokenId),msg.sender,tokenId);\r\n    emit Transfer(tokenId);\r\n  }\r\n  \r\n  //linkURL\r\n  function getLinkURL(uint256 tokenId) public returns (string memory){\r\n     return linkURLInfo[tokenId];\r\n  }\r\n\r\n  //NFTlinkURL\r\n  function setLinkURL(uint256 tokenId,string memory linkUrl) public{\r\n    require(ownerOf(tokenId) == msg.sender,\"NFT\");\r\n    linkURLInfo[tokenId] = linkUrl;\r\n  }\r\n\r\n  //NFT\r\n  function setNftPrice(uint256 tokenId,uint256 price) public{\r\n    require(ownerOf(tokenId) == msg.sender,\"NFT\");\r\n    nftPrice[tokenId] = price;\r\n  }\r\n\r\n  //tokenId\r\n  function getTokensByOwner() public returns (uint[] memory){\r\n     uint256 len = balanceOf(msg.sender);\r\n     uint[] memory result = new uint[](len);\r\n        for (uint i = 0; i < len; i++) {\r\n            result[i] = tokenOfOwnerByIndex(msg.sender,i);\r\n        }\r\n        return result;    \r\n  }\r\n   \r\n}",
  "sourcePath": "D:/adc_contract/contracts/AdvertiseNFT.sol",
  "compiler": {
    "name": "solc",
    "version": "0.6.12+commit.27d51765.Emscripten.clang"
  },
  "schemaVersion": "3.2.5",
  "updatedAt": "2020-10-13T14:45:59.719Z",
  "networkType": "ethereum",
  "devdoc": {
    "kind": "dev",
    "methods": {
      "approve(address,uint256)": {
        "details": "See {IERC721-approve}."
      },
      "balanceOf(address)": {
        "details": "See {IERC721-balanceOf}."
      },
      "baseURI()": {
        "details": "Returns the base URI set via {_setBaseURI}. This will be automatically added as a prefix in {tokenURI} to each token's URI, or to the token ID if no specific URI is set for that token ID."
      },
      "getApproved(uint256)": {
        "details": "See {IERC721-getApproved}."
      },
      "isApprovedForAll(address,address)": {
        "details": "See {IERC721-isApprovedForAll}."
      },
      "name()": {
        "details": "See {IERC721Metadata-name}."
      },
      "owner()": {
        "details": "Returns the address of the current owner."
      },
      "ownerOf(uint256)": {
        "details": "See {IERC721-ownerOf}."
      },
      "renounceOwnership()": {
        "details": "Leaves the contract without owner. It will not be possible to call `onlyOwner` functions anymore. Can only be called by the current owner. NOTE: Renouncing ownership will leave the contract without an owner, thereby removing any functionality that is only available to the owner."
      },
      "safeTransferFrom(address,address,uint256)": {
        "details": "See {IERC721-safeTransferFrom}."
      },
      "safeTransferFrom(address,address,uint256,bytes)": {
        "details": "See {IERC721-safeTransferFrom}."
      },
      "setApprovalForAll(address,bool)": {
        "details": "See {IERC721-setApprovalForAll}."
      },
      "supportsInterface(bytes4)": {
        "details": "See {IERC165-supportsInterface}. Time complexity O(1), guaranteed to always use less than 30 000 gas."
      },
      "symbol()": {
        "details": "See {IERC721Metadata-symbol}."
      },
      "tokenByIndex(uint256)": {
        "details": "See {IERC721Enumerable-tokenByIndex}."
      },
      "tokenOfOwnerByIndex(address,uint256)": {
        "details": "See {IERC721Enumerable-tokenOfOwnerByIndex}."
      },
      "tokenURI(uint256)": {
        "details": "See {IERC721Metadata-tokenURI}."
      },
      "totalSupply()": {
        "details": "See {IERC721Enumerable-totalSupply}."
      },
      "transferFrom(address,address,uint256)": {
        "details": "See {IERC721-transferFrom}."
      },
      "transferOwnership(address)": {
        "details": "Transfers ownership of the contract to a new account (`newOwner`). Can only be called by the current owner."
      }
    },
    "version": 1
  },
  "userdoc": {
    "kind": "user",
    "methods": {},
    "version": 1
  }
}