{
  "contractName": "MasterChef",
  "abi": [
    {
      "inputs": [
        {
          "internalType": "contract AdcToken",
          "name": "_sushi",
          "type": "address"
        },
        {
          "internalType": "address",
          "name": "_devaddr",
          "type": "address"
        },
        {
          "internalType": "uint256",
          "name": "_sushiPerBlock",
          "type": "uint256"
        },
        {
          "internalType": "uint256",
          "name": "_startBlock",
          "type": "uint256"
        },
        {
          "internalType": "uint256",
          "name": "_bonusEndBlock",
          "type": "uint256"
        }
      ],
      "stateMutability": "nonpayable",
      "type": "constructor"
    },
    {
      "anonymous": false,
      "inputs": [
        {
          "indexed": true,
          "internalType": "address",
          "name": "user",
          "type": "address"
        },
        {
          "indexed": true,
          "internalType": "uint256",
          "name": "pid",
          "type": "uint256"
        },
        {
          "indexed": false,
          "internalType": "uint256",
          "name": "amount",
          "type": "uint256"
        }
      ],
      "name": "Deposit",
      "type": "event"
    },
    {
      "anonymous": false,
      "inputs": [
        {
          "indexed": true,
          "internalType": "address",
          "name": "user",
          "type": "address"
        },
        {
          "indexed": true,
          "internalType": "uint256",
          "name": "pid",
          "type": "uint256"
        },
        {
          "indexed": false,
          "internalType": "uint256",
          "name": "amount",
          "type": "uint256"
        }
      ],
      "name": "EmergencyWithdraw",
      "type": "event"
    },
    {
      "anonymous": false,
      "inputs": [
        {
          "indexed": true,
          "internalType": "address",
          "name": "previousOwner",
          "type": "address"
        },
        {
          "indexed": true,
          "internalType": "address",
          "name": "newOwner",
          "type": "address"
        }
      ],
      "name": "OwnershipTransferred",
      "type": "event"
    },
    {
      "anonymous": false,
      "inputs": [
        {
          "indexed": true,
          "internalType": "address",
          "name": "user",
          "type": "address"
        },
        {
          "indexed": true,
          "internalType": "uint256",
          "name": "pid",
          "type": "uint256"
        },
        {
          "indexed": false,
          "internalType": "uint256",
          "name": "amount",
          "type": "uint256"
        }
      ],
      "name": "Withdraw",
      "type": "event"
    },
    {
      "inputs": [],
      "name": "BONUS_MULTIPLIER",
      "outputs": [
        {
          "internalType": "uint256",
          "name": "",
          "type": "uint256"
        }
      ],
      "stateMutability": "view",
      "type": "function"
    },
    {
      "inputs": [],
      "name": "bonusEndBlock",
      "outputs": [
        {
          "internalType": "uint256",
          "name": "",
          "type": "uint256"
        }
      ],
      "stateMutability": "view",
      "type": "function"
    },
    {
      "inputs": [],
      "name": "devaddr",
      "outputs": [
        {
          "internalType": "address",
          "name": "",
          "type": "address"
        }
      ],
      "stateMutability": "view",
      "type": "function"
    },
    {
      "inputs": [],
      "name": "owner",
      "outputs": [
        {
          "internalType": "address",
          "name": "",
          "type": "address"
        }
      ],
      "stateMutability": "view",
      "type": "function"
    },
    {
      "inputs": [
        {
          "internalType": "uint256",
          "name": "",
          "type": "uint256"
        }
      ],
      "name": "poolInfo",
      "outputs": [
        {
          "internalType": "contract IERC20",
          "name": "lpToken",
          "type": "address"
        },
        {
          "internalType": "uint256",
          "name": "allocPoint",
          "type": "uint256"
        },
        {
          "internalType": "uint256",
          "name": "lastRewardBlock",
          "type": "uint256"
        },
        {
          "internalType": "uint256",
          "name": "accSushiPerShare",
          "type": "uint256"
        }
      ],
      "stateMutability": "view",
      "type": "function"
    },
    {
      "inputs": [],
      "name": "renounceOwnership",
      "outputs": [],
      "stateMutability": "nonpayable",
      "type": "function"
    },
    {
      "inputs": [],
      "name": "startBlock",
      "outputs": [
        {
          "internalType": "uint256",
          "name": "",
          "type": "uint256"
        }
      ],
      "stateMutability": "view",
      "type": "function"
    },
    {
      "inputs": [],
      "name": "sushi",
      "outputs": [
        {
          "internalType": "contract AdcToken",
          "name": "",
          "type": "address"
        }
      ],
      "stateMutability": "view",
      "type": "function"
    },
    {
      "inputs": [],
      "name": "sushiPerBlock",
      "outputs": [
        {
          "internalType": "uint256",
          "name": "",
          "type": "uint256"
        }
      ],
      "stateMutability": "view",
      "type": "function"
    },
    {
      "inputs": [],
      "name": "totalAllocPoint",
      "outputs": [
        {
          "internalType": "uint256",
          "name": "",
          "type": "uint256"
        }
      ],
      "stateMutability": "view",
      "type": "function"
    },
    {
      "inputs": [
        {
          "internalType": "address",
          "name": "newOwner",
          "type": "address"
        }
      ],
      "name": "transferOwnership",
      "outputs": [],
      "stateMutability": "nonpayable",
      "type": "function"
    },
    {
      "inputs": [
        {
          "internalType": "uint256",
          "name": "",
          "type": "uint256"
        },
        {
          "internalType": "address",
          "name": "",
          "type": "address"
        }
      ],
      "name": "userInfo",
      "outputs": [
        {
          "internalType": "uint256",
          "name": "amount",
          "type": "uint256"
        },
        {
          "internalType": "uint256",
          "name": "rewardDebt",
          "type": "uint256"
        }
      ],
      "stateMutability": "view",
      "type": "function"
    },
    {
      "inputs": [],
      "name": "poolLength",
      "outputs": [
        {
          "internalType": "uint256",
          "name": "",
          "type": "uint256"
        }
      ],
      "stateMutability": "view",
      "type": "function"
    },
    {
      "inputs": [
        {
          "internalType": "uint256",
          "name": "_allocPoint",
          "type": "uint256"
        },
        {
          "internalType": "contract IERC20",
          "name": "_lpToken",
          "type": "address"
        },
        {
          "internalType": "bool",
          "name": "_withUpdate",
          "type": "bool"
        }
      ],
      "name": "add",
      "outputs": [],
      "stateMutability": "nonpayable",
      "type": "function"
    },
    {
      "inputs": [
        {
          "internalType": "uint256",
          "name": "_pid",
          "type": "uint256"
        },
        {
          "internalType": "uint256",
          "name": "_allocPoint",
          "type": "uint256"
        },
        {
          "internalType": "bool",
          "name": "_withUpdate",
          "type": "bool"
        }
      ],
      "name": "set",
      "outputs": [],
      "stateMutability": "nonpayable",
      "type": "function"
    },
    {
      "inputs": [
        {
          "internalType": "uint256",
          "name": "_from",
          "type": "uint256"
        },
        {
          "internalType": "uint256",
          "name": "_to",
          "type": "uint256"
        }
      ],
      "name": "getMultiplier",
      "outputs": [
        {
          "internalType": "uint256",
          "name": "",
          "type": "uint256"
        }
      ],
      "stateMutability": "view",
      "type": "function"
    },
    {
      "inputs": [
        {
          "internalType": "uint256",
          "name": "_pid",
          "type": "uint256"
        },
        {
          "internalType": "address",
          "name": "_user",
          "type": "address"
        }
      ],
      "name": "pendingSushi",
      "outputs": [
        {
          "internalType": "uint256",
          "name": "",
          "type": "uint256"
        }
      ],
      "stateMutability": "view",
      "type": "function"
    },
    {
      "inputs": [],
      "name": "massUpdatePools",
      "outputs": [],
      "stateMutability": "nonpayable",
      "type": "function"
    },
    {
      "inputs": [
        {
          "internalType": "uint256",
          "name": "_pid",
          "type": "uint256"
        }
      ],
      "name": "updatePool",
      "outputs": [],
      "stateMutability": "nonpayable",
      "type": "function"
    },
    {
      "inputs": [
        {
          "internalType": "uint256",
          "name": "_pid",
          "type": "uint256"
        },
        {
          "internalType": "uint256",
          "name": "_amount",
          "type": "uint256"
        }
      ],
      "name": "deposit",
      "outputs": [],
      "stateMutability": "nonpayable",
      "type": "function"
    },
    {
      "inputs": [
        {
          "internalType": "uint256",
          "name": "_pid",
          "type": "uint256"
        },
        {
          "internalType": "uint256",
          "name": "_amount",
          "type": "uint256"
        }
      ],
      "name": "withdraw",
      "outputs": [],
      "stateMutability": "nonpayable",
      "type": "function"
    },
    {
      "inputs": [
        {
          "internalType": "uint256",
          "name": "_pid",
          "type": "uint256"
        }
      ],
      "name": "emergencyWithdraw",
      "outputs": [],
      "stateMutability": "nonpayable",
      "type": "function"
    },
    {
      "inputs": [
        {
          "internalType": "address",
          "name": "_devaddr",
          "type": "address"
        }
      ],
      "name": "dev",
      "outputs": [],
      "stateMutability": "nonpayable",
      "type": "function"
    }
  ],
  "bytecode": "0x6080604052600060075534801561001557600080fd5b50604051611874380380611874833981810160405260a081101561003857600080fd5b5080516020820151604083015160608401516080909401519293919290919060006100616100e9565b600080546001600160a01b0319166001600160a01b0383169081178255604051929350917f8be0079c531659141344cd1fd0a4f28419497f9722a3daafe3b4186f6b6457e0908290a350600180546001600160a01b039687166001600160a01b03199182161790915560028054959096169416939093179093556004556003556008556100ed565b3390565b611778806100fc6000396000f3fe608060405234801561001057600080fd5b506004361061014d5760003560e01c8063630b5ba1116100c35780638dbb1e3a1161007c5780638dbb1e3a1461032557806393f1a40b14610348578063b0bcf42a1461038d578063d49e77cd14610395578063e2bbb1581461039d578063f2fde38b146103c05761014d565b8063630b5ba1146102b457806364482f79146102bc578063715018a6146102e75780638aa28550146102ef5780638d88a90e146102f75780638da5cb5b1461031d5761014d565b80631aed6553116101155780631aed6553146102115780631eaaa04514610219578063441a3e701461024f57806348cd4cb11461027257806351eb05a61461027a5780635312ea8e146102975761014d565b8063081e3eda146101525780630a0879031461016c5780631526fe271461019057806317caf6f1146101dd578063195426ec146101e5575b600080fd5b61015a6103e6565b60408051918252519081900360200190f35b6101746103ec565b604080516001600160a01b039092168252519081900360200190f35b6101ad600480360360208110156101a657600080fd5b50356103fb565b604080516001600160a01b0390951685526020850193909352838301919091526060830152519081900360800190f35b61015a61043c565b61015a600480360360408110156101fb57600080fd5b50803590602001356001600160a01b0316610442565b61015a6105b8565b61024d6004803603606081101561022f57600080fd5b508035906001600160a01b03602082013516906040013515156105be565b005b61024d6004803603604081101561026557600080fd5b5080359060200135610739565b61015a610880565b61024d6004803603602081101561029057600080fd5b5035610886565b61024d600480360360208110156102ad57600080fd5b5035610aa7565b61024d610b42565b61024d600480360360608110156102d257600080fd5b50803590602081013590604001351515610b65565b61024d610c36565b61015a610cd8565b61024d6004803603602081101561030d57600080fd5b50356001600160a01b0316610cdd565b610174610d4a565b61015a6004803603604081101561033b57600080fd5b5080359060200135610d59565b6103746004803603604081101561035e57600080fd5b50803590602001356001600160a01b0316610dbf565b6040805192835260208301919091528051918290030190f35b61015a610de3565b610174610de9565b61024d600480360360408110156103b357600080fd5b5080359060200135610df8565b61024d600480360360208110156103d657600080fd5b50356001600160a01b0316610efd565b60055490565b6001546001600160a01b031681565b6005818154811061040857fe5b600091825260209091206004909102018054600182015460028301546003909301546001600160a01b039092169350919084565b60075481565b6000806005848154811061045257fe5b600091825260208083208784526006825260408085206001600160a01b03898116875290845281862060049586029093016003810154815484516370a0823160e01b81523098810198909852935191985093969395939492909116926370a08231926024808301939192829003018186803b1580156104d057600080fd5b505afa1580156104e4573d6000803e3d6000fd5b505050506040513d60208110156104fa57600080fd5b505160028501549091504311801561051157508015155b1561057d576000610526856002015443610d59565b90506000610559600754610553886001015461054d60045487610ff590919063ffffffff16565b90610ff5565b90611055565b9050610578610571846105538464e8d4a51000610ff5565b8590611097565b935050505b6105ab83600101546105a564e8d4a51000610553868860000154610ff590919063ffffffff16565b906110f1565b9450505050505b92915050565b60035481565b6105c6611133565b6000546001600160a01b03908116911614610616576040805162461bcd60e51b815260206004820181905260248201526000805160206116f9833981519152604482015290519081900360640190fd5b801561062457610624610b42565b6000600854431161063757600854610639565b435b6007549091506106499085611097565b600755604080516080810182526001600160a01b0394851681526020810195865290810191825260006060820181815260058054600181018255925291517f036b6384b5eca791c62761152d0c79bb0604c104a5fb6f4eb0703f3154bb3db0600490920291820180546001600160a01b031916919096161790945593517f036b6384b5eca791c62761152d0c79bb0604c104a5fb6f4eb0703f3154bb3db1840155517f036b6384b5eca791c62761152d0c79bb0604c104a5fb6f4eb0703f3154bb3db28301555090517f036b6384b5eca791c62761152d0c79bb0604c104a5fb6f4eb0703f3154bb3db390910155565b60006005838154811061074857fe5b6000918252602080832086845260068252604080852033865290925292208054600490920290920192508311156107bb576040805162461bcd60e51b81526020600482015260126024820152711dda5d1a191c985dce881b9bdd0819dbdbd960721b604482015290519081900360640190fd5b6107c484610886565b60006107f282600101546105a564e8d4a5100061055387600301548760000154610ff590919063ffffffff16565b90506107fe3382611137565b815461080a90856110f1565b80835560038401546108279164e8d4a51000916105539190610ff5565b60018301558254610842906001600160a01b031633866112c8565b604080518581529051869133917ff279e6a1f5e320cca91135676d9cb6e44ca8a08c0b88342bcdb1144f6511b5689181900360200190a35050505050565b60085481565b60006005828154811061089557fe5b90600052602060002090600402019050806002015443116108b65750610aa4565b8054604080516370a0823160e01b815230600482015290516000926001600160a01b0316916370a08231916024808301926020929190829003018186803b15801561090057600080fd5b505afa158015610914573d6000803e3d6000fd5b505050506040513d602081101561092a57600080fd5b5051905080610940575043600290910155610aa4565b6000610950836002015443610d59565b90506000610977600754610553866001015461054d60045487610ff590919063ffffffff16565b6001546002549192506001600160a01b03908116916340c10f19911661099e84600a611055565b6040518363ffffffff1660e01b815260040180836001600160a01b0316815260200182815260200192505050600060405180830381600087803b1580156109e457600080fd5b505af11580156109f8573d6000803e3d6000fd5b5050600154604080516340c10f1960e01b81523060048201526024810186905290516001600160a01b0390921693506340c10f19925060448082019260009290919082900301818387803b158015610a4f57600080fd5b505af1158015610a63573d6000803e3d6000fd5b50505050610a91610a868461055364e8d4a5100085610ff590919063ffffffff16565b600386015490611097565b6003850155505043600290920191909155505b50565b600060058281548110610ab657fe5b60009182526020808320858452600682526040808520338087529352909320805460049093029093018054909450610afb926001600160a01b039190911691906112c8565b80546040805191825251849133917fbb757047c2b5f3974fe26b7c10f732e7bce710b0952a71082702781e62ae05959181900360200190a360008082556001909101555050565b60055460005b81811015610b6157610b5981610886565b600101610b48565b5050565b610b6d611133565b6000546001600160a01b03908116911614610bbd576040805162461bcd60e51b815260206004820181905260248201526000805160206116f9833981519152604482015290519081900360640190fd5b8015610bcb57610bcb610b42565b610c0882610c0260058681548110610bdf57fe5b9060005260206000209060040201600101546007546110f190919063ffffffff16565b90611097565b6007819055508160058481548110610c1c57fe5b906000526020600020906004020160010181905550505050565b610c3e611133565b6000546001600160a01b03908116911614610c8e576040805162461bcd60e51b815260206004820181905260248201526000805160206116f9833981519152604482015290519081900360640190fd5b600080546040516001600160a01b03909116907f8be0079c531659141344cd1fd0a4f28419497f9722a3daafe3b4186f6b6457e0908390a3600080546001600160a01b0319169055565b600a81565b6002546001600160a01b03163314610d28576040805162461bcd60e51b81526020600482015260096024820152686465763a207775743f60b81b604482015290519081900360640190fd5b600280546001600160a01b0319166001600160a01b0392909216919091179055565b6000546001600160a01b031690565b60006003548211610d7a57610d73600a61054d84866110f1565b90506105b2565b6003548310610d8d57610d7382846110f1565b610d73610da5600354846110f190919063ffffffff16565b610c02600a61054d876003546110f190919063ffffffff16565b60066020908152600092835260408084209091529082529020805460019091015482565b60045481565b6002546001600160a01b031681565b600060058381548110610e0757fe5b60009182526020808320868452600682526040808520338652909252922060049091029091019150610e3884610886565b805415610e7b576000610e6d82600101546105a564e8d4a5100061055387600301548760000154610ff590919063ffffffff16565b9050610e793382611137565b505b8154610e92906001600160a01b031633308661131a565b8054610e9e9084611097565b8082556003830154610ebb9164e8d4a51000916105539190610ff5565b6001820155604080518481529051859133917f90890809c654f11d6e72a28fa60149770a0d11ec6c92319d6ceb2bb0a4ea1a159181900360200190a350505050565b610f05611133565b6000546001600160a01b03908116911614610f55576040805162461bcd60e51b815260206004820181905260248201526000805160206116f9833981519152604482015290519081900360640190fd5b6001600160a01b038116610f9a5760405162461bcd60e51b81526004018080602001828103825260268152602001806116b26026913960400191505060405180910390fd5b600080546040516001600160a01b03808516939216917f8be0079c531659141344cd1fd0a4f28419497f9722a3daafe3b4186f6b6457e091a3600080546001600160a01b0319166001600160a01b0392909216919091179055565b600082611004575060006105b2565b8282028284828161101157fe5b041461104e5760405162461bcd60e51b81526004018080602001828103825260218152602001806116d86021913960400191505060405180910390fd5b9392505050565b600061104e83836040518060400160405280601a81526020017f536166654d6174683a206469766973696f6e206279207a65726f00000000000081525061137a565b60008282018381101561104e576040805162461bcd60e51b815260206004820152601b60248201527f536166654d6174683a206164646974696f6e206f766572666c6f770000000000604482015290519081900360640190fd5b600061104e83836040518060400160405280601e81526020017f536166654d6174683a207375627472616374696f6e206f766572666c6f77000081525061141c565b3390565b600154604080516370a0823160e01b815230600482015290516000926001600160a01b0316916370a08231916024808301926020929190829003018186803b15801561118257600080fd5b505afa158015611196573d6000803e3d6000fd5b505050506040513d60208110156111ac57600080fd5b5051905080821115611240576001546040805163a9059cbb60e01b81526001600160a01b038681166004830152602482018590529151919092169163a9059cbb9160448083019260209291908290030181600087803b15801561120e57600080fd5b505af1158015611222573d6000803e3d6000fd5b505050506040513d602081101561123857600080fd5b506112c39050565b6001546040805163a9059cbb60e01b81526001600160a01b038681166004830152602482018690529151919092169163a9059cbb9160448083019260209291908290030181600087803b15801561129657600080fd5b505af11580156112aa573d6000803e3d6000fd5b505050506040513d60208110156112c057600080fd5b50505b505050565b604080516001600160a01b038416602482015260448082018490528251808303909101815260649091019091526020810180516001600160e01b031663a9059cbb60e01b1790526112c3908490611476565b604080516001600160a01b0380861660248301528416604482015260648082018490528251808303909101815260849091019091526020810180516001600160e01b03166323b872dd60e01b179052611374908590611476565b50505050565b600081836114065760405162461bcd60e51b81526004018080602001828103825283818151815260200191508051906020019080838360005b838110156113cb5781810151838201526020016113b3565b50505050905090810190601f1680156113f85780820380516001836020036101000a031916815260200191505b509250505060405180910390fd5b50600083858161141257fe5b0495945050505050565b6000818484111561146e5760405162461bcd60e51b81526020600482018181528351602484015283519092839260449091019190850190808383600083156113cb5781810151838201526020016113b3565b505050900390565b60606114cb826040518060400160405280602081526020017f5361666545524332303a206c6f772d6c6576656c2063616c6c206661696c6564815250856001600160a01b03166115279092919063ffffffff16565b8051909150156112c3578080602001905160208110156114ea57600080fd5b50516112c35760405162461bcd60e51b815260040180806020018281038252602a815260200180611719602a913960400191505060405180910390fd5b6060611536848460008561153e565b949350505050565b6060611549856116ab565b61159a576040805162461bcd60e51b815260206004820152601d60248201527f416464726573733a2063616c6c20746f206e6f6e2d636f6e7472616374000000604482015290519081900360640190fd5b60006060866001600160a01b031685876040518082805190602001908083835b602083106115d95780518252601f1990920191602091820191016115ba565b6001836020036101000a03801982511681845116808217855250505050505090500191505060006040518083038185875af1925050503d806000811461163b576040519150601f19603f3d011682016040523d82523d6000602084013e611640565b606091505b509150915081156116545791506115369050565b8051156116645780518082602001fd5b60405162461bcd60e51b81526020600482018181528651602484015286518793919283926044019190850190808383600083156113cb5781810151838201526020016113b3565b3b15159056fe4f776e61626c653a206e6577206f776e657220697320746865207a65726f2061646472657373536166654d6174683a206d756c7469706c69636174696f6e206f766572666c6f774f776e61626c653a2063616c6c6572206973206e6f7420746865206f776e65725361666545524332303a204552433230206f7065726174696f6e20646964206e6f742073756363656564a2646970667358221220d157b832d71ac33d345fffecafdd3b2fd524b656394ef62ecff6576079f46bcf64736f6c634300060c0033",
  "immutableReferences": {},
  "source": "pragma solidity 0.6.12;\r\n\r\nimport \"@openzeppelin/contracts/token/ERC20/IERC20.sol\";\r\nimport \"@openzeppelin/contracts/token/ERC20/SafeERC20.sol\";\r\nimport \"@openzeppelin/contracts/utils/EnumerableSet.sol\";\r\nimport \"@openzeppelin/contracts/math/SafeMath.sol\";\r\nimport \"@openzeppelin/contracts/access/Ownable.sol\";\r\nimport \"./AdcToken.sol\";\r\n\r\n// 0xc2EdaD668740f1aA35E4D8f227fB8E17dcA888Cd\r\n\r\n// MasterChefSushi\r\n//\r\n// \r\n// SUSHI\r\n// \r\n//\r\n// \r\n\r\n// MasterChef is the master of Sushi. He can make Sushi and he is a fair guy.\r\n//\r\n// Note that it's ownable and the owner wields tremendous power. The ownership\r\n// will be transferred to a governance smart contract once SUSHI is sufficiently\r\n// distributed and the community can show to govern itself.\r\n//\r\n// Have fun reading it. Hopefully it's bug-free. God bless.\r\ncontract MasterChef is Ownable {\r\n    using SafeMath for uint256;\r\n    using SafeERC20 for IERC20;\r\n\r\n    // \r\n    // Info of each user.\r\n    struct UserInfo {\r\n        uint256 amount; // How many LP tokens the user has provided.LP\r\n        uint256 rewardDebt; // Reward debt. See explanation below.\r\n        //\r\n        // SUSHI\r\n        // We do some fancy math here. Basically, any point in time, the amount of SUSHIs\r\n        // entitled to a user but is pending to be distributed is:\r\n        //\r\n        //    =user.amount * pool.accSushiPerShare-user.rewardDebt\r\n        //   pending reward = (user.amount * pool.accSushiPerShare) - user.rewardDebt\r\n        //\r\n        // lpToken\r\n        // Whenever a user deposits or withdraws LP tokens to a pool. Here's what happens:\r\n        //   1. SUSHI(accSushiPerShare)(lastRewardBlock)\r\n        //   1. The pool's `accSushiPerShare` (and `lastRewardBlock`) gets updated.\r\n        //   2. \r\n        //   2. User receives the pending reward sent to his/her address.\r\n        //   3. amount\r\n        //   3. User's `amount` gets updated.\r\n        //   4. `rewardDebt`\r\n        //   4. User's `rewardDebt` gets updated.\r\n    }\r\n\r\n    // \r\n    // Info of each pool.\r\n    struct PoolInfo {\r\n        IERC20 lpToken; // Address of LP token contract.LP\r\n        uint256 allocPoint; // How many allocation points assigned to this pool. SUSHIs to distribute per block. SUSHI\r\n        uint256 lastRewardBlock; // Last block number that SUSHIs distribution occurs.SUSHIs\r\n        uint256 accSushiPerShare; // Accumulated SUSHIs per share, times 1e12. See below.SUSHI1e12\r\n    }\r\n\r\n    // The SUSHI TOKEN!\r\n    AdcToken public sushi;\r\n    // Dev address.\r\n    address public devaddr;\r\n    // \r\n    // Block number when bonus SUSHI period ends.\r\n    uint256 public bonusEndBlock;\r\n    // SUSHI\r\n    // SUSHI tokens created per block.\r\n    uint256 public sushiPerBlock;\r\n    // \r\n    // Bonus muliplier for early sushi makers.\r\n    uint256 public constant BONUS_MULTIPLIER = 10;\r\n\r\n    // \r\n    // Info of each pool.\r\n    PoolInfo[] public poolInfo;\r\n    // ID=>=> \r\n    // Info of each user that stakes LP tokens.\r\n    mapping(uint256 => mapping(address => UserInfo)) public userInfo;\r\n    // \r\n    // Total allocation poitns. Must be the sum of all allocation points in all pools.\r\n    uint256 public totalAllocPoint = 0;\r\n    // SUSHI\r\n    // The block number when SUSHI mining starts.\r\n    uint256 public startBlock;\r\n\r\n    event Deposit(address indexed user, uint256 indexed pid, uint256 amount);\r\n    event Withdraw(address indexed user, uint256 indexed pid, uint256 amount);\r\n    event EmergencyWithdraw(\r\n        address indexed user,\r\n        uint256 indexed pid,\r\n        uint256 amount\r\n    ); //\r\n\r\n    /**\r\n     * @dev \r\n     * @param _sushi \r\n     * @param _devaddr \r\n     * @param _sushiPerBlock SUSHI\r\n     * @param _startBlock SUSHI\r\n     * @param _bonusEndBlock \r\n     */\r\n    // sushiswap\r\n    // _sushi: '0x6B3595068778DD592e39A122f4f5a5cF09C90fE2',\r\n    // _devaddr: '0xF942Dba4159CB61F8AD88ca4A83f5204e8F4A6bd',\r\n    // _sushiPerBlock: '100000000000000000000',\r\n    // _startBlock: '10750000',\r\n    // _bonusEndBlock: '10850000'\r\n    constructor(\r\n        AdcToken _sushi,\r\n        address _devaddr,\r\n        uint256 _sushiPerBlock,\r\n        uint256 _startBlock,\r\n        uint256 _bonusEndBlock\r\n    ) public {\r\n        sushi = _sushi;\r\n        devaddr = _devaddr;\r\n        sushiPerBlock = _sushiPerBlock;\r\n        bonusEndBlock = _bonusEndBlock;\r\n        startBlock = _startBlock;\r\n    }\r\n\r\n    /**\r\n     * @dev \r\n     */\r\n    function poolLength() external view returns (uint256) {\r\n        return poolInfo.length;\r\n    }\r\n\r\n    /**\r\n     * @dev lp,\r\n     * @param _allocPoint  SUSHI\r\n     * @param _lpToken LP\r\n     * @param _withUpdate gas\r\n     */\r\n    // Add a new lp to the pool. Can only be called by the owner.\r\n    // XXXLP\r\n    // XXX DO NOT add the same LP token more than once. Rewards will be messed up if you do.\r\n    function add(\r\n        uint256 _allocPoint,\r\n        IERC20 _lpToken,\r\n        bool _withUpdate\r\n    ) public onlyOwner {\r\n        // \r\n        if (_withUpdate) {\r\n            massUpdatePools();\r\n        }\r\n        //  =  > SUSHI >  : SUSHI\r\n        uint256 lastRewardBlock = block.number > startBlock\r\n            ? block.number\r\n            : startBlock;\r\n        // \r\n        totalAllocPoint = totalAllocPoint.add(_allocPoint);\r\n        // \r\n        poolInfo.push(\r\n            PoolInfo({\r\n                lpToken: _lpToken,\r\n                allocPoint: _allocPoint,\r\n                lastRewardBlock: lastRewardBlock,\r\n                accSushiPerShare: 0\r\n            })\r\n        );\r\n    }\r\n\r\n    /**\r\n     * @dev SUSHI\r\n     * @param _pid ID,\r\n     * @param _allocPoint  SUSHI\r\n     * @param _withUpdate gas\r\n     */\r\n    // Update the given pool's SUSHI allocation point. Can only be called by the owner.\r\n    function set(\r\n        uint256 _pid,\r\n        uint256 _allocPoint,\r\n        bool _withUpdate\r\n    ) public onlyOwner {\r\n        // \r\n        if (_withUpdate) {\r\n            massUpdatePools();\r\n        }\r\n        //  =  - [id]. + \r\n        totalAllocPoint = totalAllocPoint.sub(poolInfo[_pid].allocPoint).add(\r\n            _allocPoint\r\n        );\r\n        // [id]. = \r\n        poolInfo[_pid].allocPoint = _allocPoint;\r\n    }\r\n\r\n\r\n    /**\r\n     * @dev fromto,\r\n     * @param _from from\r\n     * @param _to to\r\n     * @return \r\n     */\r\n    // Return reward multiplier over the given _from to _to block.\r\n    function getMultiplier(uint256 _from, uint256 _to)\r\n        public\r\n        view\r\n        returns (uint256)\r\n    {\r\n        // to <= \r\n        if (_to <= bonusEndBlock) {\r\n            //  (to - from) * \r\n            return _to.sub(_from).mul(BONUS_MULTIPLIER);\r\n            //  from >= \r\n        } else if (_from >= bonusEndBlock) {\r\n            // to - from\r\n            return _to.sub(_from);\r\n            // \r\n        } else {\r\n            //  ( - from) *  + (to - )\r\n            return\r\n                bonusEndBlock.sub(_from).mul(BONUS_MULTIPLIER).add(\r\n                    _to.sub(bonusEndBlock)\r\n                );\r\n        }\r\n    }\r\n\r\n    /**\r\n     * @dev SUSHI\r\n     * @param _pid id\r\n     * @param _user \r\n     * @return SUSHI\r\n     */\r\n    // View function to see pending SUSHIs on frontend.\r\n    function pendingSushi(uint256 _pid, address _user)\r\n        external\r\n        view\r\n        returns (uint256)\r\n    {\r\n        // \r\n        PoolInfo storage pool = poolInfo[_pid];\r\n        // id,\r\n        UserInfo storage user = userInfo[_pid][_user];\r\n        // SUSHI\r\n        uint256 accSushiPerShare = pool.accSushiPerShare;\r\n        // LPtoken = `.lpToken`\r\n        uint256 lpSupply = pool.lpToken.balanceOf(address(this));\r\n        //  > . && LPtoken != 0\r\n        if (block.number > pool.lastRewardBlock && lpSupply != 0) {\r\n            //  = (, )\r\n            uint256 multiplier = getMultiplier(\r\n                pool.lastRewardBlock,\r\n                block.number\r\n            );\r\n            // sushi =  * SUSHI *  / \r\n            uint256 sushiReward = multiplier\r\n                .mul(sushiPerBlock)\r\n                .mul(pool.allocPoint)\r\n                .div(totalAllocPoint);\r\n            // SUSHI = SUSHI + sushi * 1e12 / LPtoken\r\n            accSushiPerShare = accSushiPerShare.add(\r\n                sushiReward.mul(1e12).div(lpSupply)\r\n            );\r\n        }\r\n        //  . * SUSHI / 1e12 - .\r\n        return user.amount.mul(accSushiPerShare).div(1e12).sub(user.rewardDebt);\r\n    }\r\n\r\n    /**\r\n     * @dev \r\n     */\r\n    // Update reward vairables for all pools. Be careful of gas spending!\r\n    function massUpdatePools() public {\r\n        // \r\n        uint256 length = poolInfo.length;\r\n        // \r\n        for (uint256 pid = 0; pid < length; ++pid) {\r\n            // (id)\r\n            updatePool(pid);\r\n        }\r\n    }\r\n\r\n    /**\r\n     * @dev \r\n     * @param _pid id\r\n     */\r\n    // Update reward variables of the given pool to be up-to-date.\r\n    function updatePool(uint256 _pid) public {\r\n        // \r\n        PoolInfo storage pool = poolInfo[_pid];\r\n        //  <= .\r\n        if (block.number <= pool.lastRewardBlock) {\r\n            // \r\n            return;\r\n        }\r\n        // LPtoken = `.lotoken`\r\n        uint256 lpSupply = pool.lpToken.balanceOf(address(this));\r\n        //  LPtoken == 0\r\n        if (lpSupply == 0) {\r\n            // . = \r\n            pool.lastRewardBlock = block.number;\r\n            // \r\n            return;\r\n        }\r\n        //  = (, )\r\n        uint256 multiplier = getMultiplier(pool.lastRewardBlock, block.number);\r\n        // sushi =  * SUSHI *  / \r\n        uint256 sushiReward = multiplier\r\n            .mul(sushiPerBlock)\r\n            .mul(pool.allocPoint)\r\n            .div(totalAllocPoint);\r\n        // sushi,  (`sushi` / 10) token\r\n        sushi.mint(devaddr, sushiReward.div(10));\r\n        // sushi,  `sushi` token\r\n        sushi.mint(address(this), sushiReward);\r\n        // SUSHI = SUSHI + sushi * 1e12 / LPtoken\r\n        pool.accSushiPerShare = pool.accSushiPerShare.add(\r\n            sushiReward.mul(1e12).div(lpSupply)\r\n        );\r\n        // . = \r\n        pool.lastRewardBlock = block.number;\r\n    }\r\n\r\n    /**\r\n     * @dev LPMasterChefSUSHI\r\n     * @param _pid id\r\n     * @param _amount \r\n     */\r\n    // Deposit LP tokens to MasterChef for SUSHI allocation.\r\n    function deposit(uint256 _pid, uint256 _amount) public {\r\n        // \r\n        PoolInfo storage pool = poolInfo[_pid];\r\n        // id,\r\n        UserInfo storage user = userInfo[_pid][msg.sender];\r\n        // \r\n        updatePool(_pid);\r\n        // >0\r\n        if (user.amount > 0) {\r\n            //  = . * .SUSHI / 1e12 - .\r\n            uint256 pending = user\r\n                .amount\r\n                .mul(pool.accSushiPerShare)\r\n                .div(1e12)\r\n                .sub(user.rewardDebt);\r\n            // sushi\r\n            safeSushiTransfer(msg.sender, pending);\r\n        }\r\n        // .lptoken,_amountlp token\r\n        pool.lpToken.safeTransferFrom(\r\n            address(msg.sender),\r\n            address(this),\r\n            _amount\r\n        );\r\n        // .  = . + _amount\r\n        user.amount = user.amount.add(_amount);\r\n        // . = . * .SUSHI / 1e12\r\n        user.rewardDebt = user.amount.mul(pool.accSushiPerShare).div(1e12);\r\n        // \r\n        emit Deposit(msg.sender, _pid, _amount);\r\n    }\r\n\r\n    /**\r\n     * @dev MasterChefLP\r\n     * @param _pid id\r\n     * @param _amount \r\n     */\r\n    // Withdraw LP tokens from MasterChef.\r\n    function withdraw(uint256 _pid, uint256 _amount) public {\r\n        // \r\n        PoolInfo storage pool = poolInfo[_pid];\r\n        // id,\r\n        UserInfo storage user = userInfo[_pid][msg.sender];\r\n        // . >= _amount\r\n        require(user.amount >= _amount, \"withdraw: not good\");\r\n        // \r\n        updatePool(_pid);\r\n        //  = . * .SUSHI / 1e12 - .\r\n        uint256 pending = user.amount.mul(pool.accSushiPerShare).div(1e12).sub(\r\n            user.rewardDebt\r\n        );\r\n        // sushi\r\n        safeSushiTransfer(msg.sender, pending);\r\n        // .  = . - _amount\r\n        user.amount = user.amount.sub(_amount);\r\n        // . = . * .SUSHI / 1e12\r\n        user.rewardDebt = user.amount.mul(pool.accSushiPerShare).div(1e12);\r\n        // .lptoken,_amountlp token\r\n        pool.lpToken.safeTransfer(address(msg.sender), _amount);\r\n        // \r\n        emit Withdraw(msg.sender, _pid, _amount);\r\n    }\r\n\r\n    /**\r\n     * @dev \r\n     * @param _pid id\r\n     */\r\n    // Withdraw without caring about rewards. EMERGENCY ONLY.\r\n    function emergencyWithdraw(uint256 _pid) public {\r\n        // \r\n        PoolInfo storage pool = poolInfo[_pid];\r\n        // id,\r\n        UserInfo storage user = userInfo[_pid][msg.sender];\r\n        // .lptoken,_amountlp token\r\n        pool.lpToken.safeTransfer(address(msg.sender), user.amount);\r\n        // \r\n        emit EmergencyWithdraw(msg.sender, _pid, user.amount);\r\n        // . = 0\r\n        user.amount = 0;\r\n        // . = 0\r\n        user.rewardDebt = 0;\r\n    }\r\n\r\n    /**\r\n     * @dev \r\n     * @param _to to\r\n     * @param _amount \r\n     */\r\n    // Safe sushi transfer function, just in case if rounding error causes pool to not have enough SUSHIs.\r\n    function safeSushiTransfer(address _to, uint256 _amount) internal {\r\n        // sushi = sushi\r\n        uint256 sushiBal = sushi.balanceOf(address(this));\r\n        //  > sushi\r\n        if (_amount > sushiBal) {\r\n            // sushisushito\r\n            sushi.transfer(_to, sushiBal);\r\n        } else {\r\n            // _amountsushito\r\n            sushi.transfer(_to, _amount);\r\n        }\r\n    }\r\n\r\n    /**\r\n     * @dev \r\n     * @param _devaddr \r\n     */\r\n    // Update dev address by the previous dev.\r\n    function dev(address _devaddr) public {\r\n        // \r\n        require(msg.sender == devaddr, \"dev: wut?\");\r\n        // \r\n        devaddr = _devaddr;\r\n    }\r\n}\r\n",
  "sourcePath": "D:/adc_contract/contracts/AdcPool.sol",
  "compiler": {
    "name": "solc",
    "version": "0.6.12+commit.27d51765.Emscripten.clang"
  },
  "schemaVersion": "3.2.5",
  "updatedAt": "2020-10-13T14:26:09.216Z",
  "devdoc": {
    "kind": "dev",
    "methods": {
      "add(uint256,address,bool)": {
        "details": "lp,",
        "params": {
          "_allocPoint": " SUSHI",
          "_lpToken": "LP",
          "_withUpdate": "gas"
        }
      },
      "constructor": {
        "details": "",
        "params": {
          "_bonusEndBlock": "",
          "_devaddr": "",
          "_startBlock": "SUSHI",
          "_sushi": "",
          "_sushiPerBlock": "SUSHI"
        }
      },
      "deposit(uint256,uint256)": {
        "details": "LPMasterChefSUSHI",
        "params": {
          "_amount": "",
          "_pid": "id"
        }
      },
      "dev(address)": {
        "details": "",
        "params": {
          "_devaddr": ""
        }
      },
      "emergencyWithdraw(uint256)": {
        "details": "",
        "params": {
          "_pid": "id"
        }
      },
      "getMultiplier(uint256,uint256)": {
        "details": "fromto,",
        "params": {
          "_from": "from",
          "_to": "to"
        },
        "returns": {
          "_0": ""
        }
      },
      "massUpdatePools()": {
        "details": ""
      },
      "owner()": {
        "details": "Returns the address of the current owner."
      },
      "pendingSushi(uint256,address)": {
        "details": "SUSHI",
        "params": {
          "_pid": "id",
          "_user": ""
        },
        "returns": {
          "_0": "SUSHI"
        }
      },
      "poolLength()": {
        "details": ""
      },
      "renounceOwnership()": {
        "details": "Leaves the contract without owner. It will not be possible to call `onlyOwner` functions anymore. Can only be called by the current owner. NOTE: Renouncing ownership will leave the contract without an owner, thereby removing any functionality that is only available to the owner."
      },
      "set(uint256,uint256,bool)": {
        "details": "SUSHI",
        "params": {
          "_allocPoint": " SUSHI",
          "_pid": "ID,",
          "_withUpdate": "gas"
        }
      },
      "transferOwnership(address)": {
        "details": "Transfers ownership of the contract to a new account (`newOwner`). Can only be called by the current owner."
      },
      "updatePool(uint256)": {
        "details": "",
        "params": {
          "_pid": "id"
        }
      },
      "withdraw(uint256,uint256)": {
        "details": "MasterChefLP",
        "params": {
          "_amount": "",
          "_pid": "id"
        }
      }
    },
    "version": 1
  },
  "userdoc": {
    "kind": "user",
    "methods": {},
    "version": 1
  }
}